:0400000051EF06F0C6
:08000800046ED8CF05F0E0CF33
:1000100006F00001E9CF0CF0EACF07F0E1CF08F0DD
:10002000E2CF09F0D9CF0AF0DACF0BF0F3CF12F01C
:10003000F4CF13F0FACF14F0F5CF15F0F6CF16F099
:10004000F7CF17F000C00EF001C00FF002C010F0A3
:1000500003C011F0F2AA30EF00F0F2B42DEF03F07C
:10006000F2A836EF00F0F2B276EF00F09DAA3CEF76
:1000700000F09EBA1AEF04F00EC000F00FC001F0BD
:1000800010C002F011C003F00CC0E9FF07C0EAFF86
:10009000078E08C0E1FF09C0E2FF0AC0D9FF0BC00C
:1000A000DAFF12C0F3FF13C0F4FF14C0FAFF15C04B
:1000B000F5FF16C0F6FF17C0F7FF045006C0E0FFBB
:1000C00005C0D8FF1000F76AD60FF66E000EF722B3
:1000D0000900F55012000000240048006C00900058
:1000E000B400D800FC002001440164011C2AF292F3
:1000F0003CEF00F08E0E006E63C001F062C002F0B3
:10010000036A015209E102C001F0026A080E005EB2
:10011000015202E1006A08D0D89001BE04D0023634
:1001200001360006F9D7019E12006A51D8B471D089
:10013000006E6E51D8B46DD0002604E3810E002607
:1001400068E204D07F0E005E64E363E06BC072F08F
:100150006F51721B6B8F6F8F6D517103F4CF74F001
:100160006C517003F4CF03F0F3CF73F07103F350CD
:100170007427F4507323000E03226D517003F35063
:100180007427F4507323000E026A032202226B517B
:100190007103F3507327F4500322000E02226B51B7
:1001A0007003F3500326F4500222000E016A01226C
:1001B0006D516F03F3507327F4500322000E022297
:1001C00001226C516F03F3500326F4500222000EFB
:1001D00001226B516F03F3500226F4500122002AD2
:1001E00001BE05D073370336023601360006000E15
:1001F00073AF0AD0032A02220122015005E1025006
:1002000003E1035001E1002A72BF018E72AF019E2B
:1002100004D0006A016A026A036A12006251D8B40B
:10022000A5D06E6F6651D8B4A1D06E5F05E37F0E86
:100230006E27D8B09BD006D0810E6E5FD8A096D026
:10024000D8B494D06EC000F0016A026A036A6D6B84
:1002500063C06CF06C8F64C06BF065C06AF0190EFF
:100260006E6F69516A5F0DE2010E6B5F0AE26C5FAF
:1002700008E26D5F06E26D2B6C2B6B2B69516A27D0
:1002800028D068516B5F12E2010E6C5F0FE26D5F68
:100290000DE26D2B6C2B68516B2769516A2719E3AE
:1002A0006B2B17E16C2B15E16D2B13D06751800977
:1002B0006C5F0EE2010E6D5F0BE26D2B67518009E2
:1002C0006C2768516B27E9E36C2BE7E16D2BE5D7D1
:1002D00003806E2F01D00BD0D8906A376B376C3704
:1002E0006D37D8900336023601366F37BAD76FA113
:1002F00006D0D8900132023203326F3302D00006AA
:1003000035E06FBF1ED0D8906A376B376C376D37CA
:1003100069516A5F07E2010E6B5F04E26C5F02E203
:100320006D5F1AE368516B5F05E2010E6C5F02E2DC
:100330006D5F12E3675180096C5F03E2010E6D5F30
:100340000BE3032A09E1022A07E1012A05E1002A59
:100350000DE001320232033263C06EF067516E1B52
:100360006EAF02D0018E06D0019E04D0006A016AF1
:10037000026A036A67EF03F05FC066F06351661BB1
:1003800066AF05D0D894D8905FBED8802FD05FC01C
:1003900066F062C067F05E50675F06E066AF26D029
:1003A000D850010AD86E22D063C067F05F50675FF3
:1003B00006E066AF1BD0D850010AD86E17D064C0D3
:1003C00067F06051675F06E066AF10D0D850010A51
:1003D000D86E0CD065C067F06151675F06E066AF0C
:1003E00005D0D850010AD86E01D0D8907DEF03F027
:1003F000800ED8B26B1B706B716B67C06FF06B5166
:100400006F1B6651D8B4DCD06E6F006E6A51D8B4E1
:10041000E0D06E5FD8B481D03DE36BC074F0748FD0
:100420006CC073F06DC072F0716BD890743373331D
:10043000723371336E2FF8D76FAF03D07081DDD078
:1004400070916E917089EA6A690EE96EE9D07099CF
:100450006FBF0AD06EA113D074337333723371330C
:10046000002AD8B4C5D00BD074BF0CD0D890713747
:100470007237733774370006D8B4BAD0F5D7708D99
:100480006BD0709D67C06FF067AF02D0748FA9D03A
:10049000749FA7D06AC06EF06AC000F066516E5FAC
:1004A00067C074F0748F68C073F069C072F0716BCC
:1004B000D89074337333723371336E2FF8D76FAFB4
:1004C00003D070839AD070936E91708BEA6A6D0E30
:1004D000E96EA6D0709B6FBF0AD06EA113D07433A3
:1004E000733372337133002AD8B482D00BD074BF07
:1004F0000CD0D89071377237733774370006D8B480
:1005000077D0F5D7708F28D0709F6BC06FF06BAF2E
:1005100002D0748F66D0749F64D06BC074F0748FF7
:100520006CC073F06DC072F06FAF04D0749F7085B3
:1005300064D07095716B6E91EA6A690EE96E70D045
:100540006FBF1CD067C06FF06EA106D074337333D9
:1005500072337133002A4CE071AF0BD0722B09E17A
:10056000732B07E1742B05E1743373337233002A64
:100570003FE070BD86D770BFC7D71CD0800E741BFC
:1005800074AF04D03AD06BC06FF00AD067C06FF080
:10059000745306E1735304E1725302E1006A21D0FF
:1005A00074BF08D0D8907137723773377437002E04
:1005B000F7D71ED06FAF02D0748F13D0749F11D0B5
:1005C0006AC000F06BC074F06CC073F06DC072F064
:1005D00008D066C000F067C074F068C073F069C0EE
:1005E00072F074C001F073C002F072C003F034D036
:1005F000006A016A026A036A2FD0716B721F731F4F
:10060000741F711F712B05E1722B03E1732B01E144
:10061000742B70B115D770B356D770B58AD7B3D7CE
:10062000EF50722705E3732B03E1742BD8B46E816E
:10063000ED52EF50732703E3742BD8B46E81ED5263
:10064000EF50EFBE01D0800A7427D8B06E8170B928
:10065000FED670BB3FD774D71200D76A060ED66E8F
:1006600000001D2A1D500308D8B0E1D01D6A636B3D
:100670001CC062F03FDD03C06DF002C06CF001C031
:100680006BF000C06AF0716B706B700E6F6F860E4E
:100690006E6F4BDD03C061F002C060F001C05FF01F
:1006A00000C05EF0636B1EC062F024DD61C065F0C7
:1006B00060C064F05FC063F05EC062F003C069F0C8
:1006C00002C068F001C067F000C066F0A7D503C0A3
:1006D00024F002C023F001C022F000C021F01C6A07
:1006E00028C061F027C060F026C05FF025C05EF032
:1006F000656B646B636B626B3FD6D8B484D0D89261
:1007000034C069F033C068F032C067F031C066F0C1
:100710006D6B6C6B6B6B7F0E6A6F6ADE03C061F092
:1007200002C060F001C05FF000C05EF030C06DF04C
:100730002FC06CF02EC06BF02DC06AF024C071F099
:1007400023C070F022C06FF021C06EF0EEDC03C059
:1007500065F002C064F001C063F000C062F0D882AE
:10076000696B686B676B7F0E666F30C06DF02FC072
:100770006CF02EC06BF02DC06AF03ADE03C069F059
:1007800002C068F001C067F000C066F003C06DF001
:1007900002C06CF001C06BF000C06AF028C071F0BC
:1007A00027C070F026C06FF025C06EF0BEDCD89276
:1007B00065C069F064C068F063C067F062C066F04D
:1007C00003C06DF002C06CF001C06BF000C06AF0B5
:1007D0000FDE61C06DF060C06CF05FC06BF05EC09A
:1007E0006AF003C071F002C070F001C06FF000C089
:1007F0006EF09BDC03C02CF002C02BF001C02AF08D
:1008000000C029F008D024C02CF023C02BF022C057
:100810002AF021C029F02CC028F02BC027F02AC0D4
:1008200026F029C025F0202C02D0010E416EF29452
:100830003CEF00F09EAAFED7AECF5EF05E3C01D04A
:100840003F6A036A3F50350FE96E000E0320EA6EDF
:100850005EC0EFFF3F2A3F50020803E2010E406EE8
:100860003F6A9E9A3CEF00F05472616D61207265A0
:100870006369626964613A20647574793D25642C0A
:100880002065737461646F3D25640A004D6F746F59
:100890007220656E63656E6469646F3A2064757476
:1008A000793D25640A004D6F746F72206170616735
:1008B00061646F0A0000252E3266202D0A000900AF
:1008C000F6CF47F0F7CF48F0F5509EA8FED7AD6EB3
:1008D00047C0F6FF48C0F7FF462EF1D712004D5033
:1008E000016A4C5C03E24CC000F00CD0006A080EB8
:1008F0004E6E4C3600364D50005CD8B0006E01365E
:100900004E2EF7D71200200E47A8300E486E46C074
:1009100000F046AE08D0001E002A00C046F02D0EA2
:10092000486E478E4780015046C04CF0640E4D6EB5
:10093000D6DF00C046F0300E0124496E46C04CF0B0
:100940000A0E4D6ECCDF300E00244B6E300E0124AB
:100950004A6E48C000F0300E495C04E0478247BE52
:10096000478412D048C049F0200E486E300E4A5CD1
:1009700004E0478047BE478207D0D8A4478004E1FF
:1009800049C04AF0200E496E47B405D047B207D09F
:1009900047B009D00CD048509EA8FED7AD6E495044
:1009A0009EA8FED7AD6E4A509EA8FED7AD6E4B50A6
:1009B0009EA8FED7AD6E12004450E96E45C0EAFF16
:1009C000EF3C2CD0010E4424E96E000E4520EA6E67
:1009D000EFCF1FF0020E4424E96E000E4520EA6EB0
:1009E000EFCF20F0680EF66E080EF76E150E466E0D
:1009F00066DF1FC046F0180E476E85DF7F0EF66E6D
:100A0000080EF76E090E466E5ADF20C046F0180E2B
:100A1000476E79DF0A0E9EA8FED7AD6ED0EF06F0C6
:100A20000900F5520DE0F6CF44F0F7CF45F0F55050
:100A30009EA8FED7AD6E44C0F6FF45C0F7FFF0D7C5
:100A400003EF07F05150B608516E036A52C055F0DB
:100A5000528ED89052325332543203320232013223
:100A60000032512EF6D755AE0BD0001E011E021ECD
:100A7000031E002AD8B4012AD8B4022AD8B4032A03
:100A8000B7EF05F0D8B203D0EA6A590EE96E006AF2
:100A9000016A026A036A596A5A6A5B6A5C6A585058
:100AA0005710561055102CE0200E5D6ED890513620
:100AB00052365336543659365A365B365C365850B1
:100AC0005C5C08E157505B5C05E156505A5C02E102
:100AD0005550595C0FE35550595E5650D8A0563CBE
:100AE0005A5E5750D8A0573C5B5E5850D8A0583C2F
:100AF0005C5ED88000360136023603365D2ED6D7CE
:100B000059C0EFFF5AC0ECFF5BC0ECFF5CC0ECFFCC
:100B10001200E950496E48504B6E20E0196AF2BE4F
:100B2000198EF29E47C06DF046C06CF045C06BF068
:100B300044C06AF0716B706B200E6F6F820E6E6F27
:100B400095EC00F019BEF28E03C047F002C046F0EB
:100B500001C045F000C044F04B2EE0D747C054F030
:100B600046C053F045C052F044C051F06BD703C0AB
:100B700047F002C046F001C045F000C044F047AE67
:100B80000DD04906498A441E451E461E471E442A6A
:100B9000D8B4452AD8B4462AD8B4472A3B0E506E5A
:100BA0009A0E4F6ECA0E4E6E4D6A0A0E4B6E48502C
:100BB000D8B4492AD882EA6A440EE96E47C054F094
:100BC00046C053F045C052F044C051F050C058F0F8
:100BD0004FC057F04EC056F04DC055F053DF015096
:100BE00000520FE148284B5C0CE049500CE00F0B21
:100BF0004B5C01E03BE249BE39D049BC04D0200E39
:100C000030D0200E491649AA0DD0499A4850D8A490
:100C100049060050496E2D0E9EA8FED7AD6E495074
:100C2000006E496A48504B5C0BE10050496E2E0E35
:100C30009EA8FED7AD6E4950006E200E4916000EDC
:100C4000300E49AA0ED0499A4850D8A449060050FF
:100C5000496E2D0E9EA8FED7AD6E4950006E496AB2
:100C6000300E002600509EA8FED7AD6ED89250C020
:100C700054F04FC053F04EC052F04DC051F0586A7E
:100C8000576A566A0A0E556EFDDE03C050F002C068
:100C90004FF001C04EF000C04DF04B2E8BD715EF3A
:100CA00007F0F86AD09E078E500ED36ED26A9B6A08
:100CB000B896190EAF6EA60EAC6E900EAB6E580EB7
:100CC0001A6E010E1B6E1C6A1D6A080E1E6E0B0E3C
:100CD0001F6E206A246A236A226A216A286A276AA8
:100CE000266A256A2C6A2B6A2A6A296ACD0E306E1A
:100CF000CC0E2F6E4C0E2E6E7E0E2D6E346A336A25
:100D0000326A316A3F6A406A416A436A426A0F0145
:100D10005B6B5C6B5D6B5E6B5F6B9A6A996A986AE2
:100D20009D8AF288F28AC00EF212010E1B5C016EDF
:100D30000134006E00360036F80E00160050060929
:100D4000BA6E1AC0BBFF94948B940C0EBD6EB76A3A
:100D5000B66A010EB96E5991C70ED56ED8901F3480
:100D6000036A000163EC00F00900F5CF03F0446E64
:100D700003C045F04532443245324432453244C026
:100D8000BEFF45324530300B006EBD50CF0B00101A
:100D9000BD6E405238E0406A456A350E446E0CD64E
:100DA00020522BE0D8901F34036A63EC00F0090056
:100DB000F5CF03F0446E03C045F04532443245326E
:100DC0004432453244C0BEFF45324530300B006EE0
:100DD000BD50CF0B0010BD6E8C0EF66E080EF76E78
:100DE000160E466E6CDD1FC046F0180E476E8BDD8A
:100DF0000A0E9EA8FED7AD6E06D0BE6AA60EF66E8F
:100E0000080EF76E0DD6415217E0416A205214E0E9
:100E1000890EE96E2CC047F02BC046F02AC045F081
:100E200029C044F0020E486E74D6BA0EF66E080E53
:0C0E3000F76E030E466E43DDACD70300E6
:020000040030CA
:0E00000021C15E3C00D3A1000FC00FE00F40F5
:00000001FF
;PIC18F45K50
;CRC=C6A2  CREATED="05-mar.-25 22:39"
