:04000000E9EF05F02F
:08000800046ED8CF05F0E0CF33
:1000100006F00001E9CF0CF0EACF07F0E1CF08F0DD
:10002000E2CF09F0D9CF0AF0DACF0BF0F3CF12F01C
:10003000F4CF13F0FACF14F0F5CF15F0F6CF16F099
:10004000F7CF17F000C00EF001C00FF002C010F0A3
:1000500003C011F0F2AA30EF00F0F2B487EF03F022
:10006000F2A836EF00F0F2B2D0EF00F09DAA3CEF1C
:1000700000F09EBA73EF04F00EC000F00FC001F064
:1000800010C002F011C003F00CC0E9FF07C0EAFF86
:10009000078E08C0E1FF09C0E2FF0AC0D9FF0BC00C
:1000A000DAFF12C0F3FF13C0F4FF14C0FAFF15C04B
:1000B000F5FF16C0F6FF17C0F7FF045006C0E0FFBB
:1000C00005C0D8FF1000F76AD60FF66E000EF722B3
:1000D0000900F55012000000030007000A000E009E
:1000E0001100150018001C002000230027002A0022
:1000F0002E003100350038003C004000430047002E
:100100004A004E005100550059005C006000630039
:1001100067006A006E007100750079007C00800045
:10012000830087008A008E009100950099009C0052
:10013000A000A300A700AA00AE00B200B500B9005D
:10014000BC00C000C300C700CA00CE00D200D5006A
:10015000D900DC00E000E300E700EA00EE00F20076
:10016000F500F900FC000001030107010B010E017D
:100170001201150119011C012001230127012B0186
:100180002E013201350139013C0140014301470193
:100190004B014E015201550159015C01600164019E
:1001A0001C2AF2923CEF00F08E0E006E61C001F04E
:1001B00060C002F0036A015209E102C001F0026A64
:1001C000080E005E015202E1006A08D0D89001BE1C
:1001D00004D0023601360006F9D7019E120068519C
:1001E000D8B471D0006E6C51D8B46DD0002604E341
:1001F000810E002668E204D07F0E005E64E363E0B7
:1002000069C070F06D51701B698F6D8F6B516F03FA
:10021000F4CF72F06A516E03F4CF03F0F3CF71F0B4
:100220006F03F3507227F4507123000E03226B51B9
:100230006E03F3507227F4507123000E026A0322FA
:10024000022269516F03F3507127F4500322000E0C
:10025000022269516E03F3500326F4500222000E6D
:10026000016A01226B516D03F3507127F450032290
:10027000000E022201226A516D03F3500326F4504E
:100280000222000E012269516D03F3500226F45040
:100290000122002A01BE05D071370336023601362D
:1002A0000006000E71AF0AD0032A0222012201507B
:1002B00005E1025003E1035001E1002A70BF018E05
:1002C00070AF019E04D0006A016A026A036A1200DC
:1002D0006051D8B4A5D06C6F6451D8B4A1D06C5F14
:1002E00005E37F0E6C27D8B09BD006D0810E6C5FE3
:1002F000D8A096D0D8B494D06CC000F0016A026A3D
:10030000036A6B6B61C06AF06A8F62C069F063C098
:1003100068F0190E6C6F6751685F0DE2010E695F3E
:100320000AE26A5F08E26B5F06E26B2B6A2B692BBD
:100330006751682728D06651695F12E2010E6A5F33
:100340000FE26B5F0DE26B2B6A2B665169276751D9
:10035000682719E3692B17E16A2B15E16B2B13D082
:10036000655180096A5F0EE2010E6B5F0BE26B2B39
:10037000655180096A2766516927E9E36A2BE7E13D
:100380006B2BE5D703806C2F01D00BD0D89068374A
:1003900069376A376B37D8900336023601366D37C6
:1003A000BAD76DA106D0D8900132023203326D3334
:1003B00002D0000635E06DBF1ED0D890683769378F
:1003C0006A376B376751685F07E2010E695F04E2C5
:1003D0006A5F02E26B5F1AE36651695F05E2010E34
:1003E0006A5F02E26B5F12E3655180096A5F03E2B4
:1003F000010E6B5F0BE3032A09E1022A07E1012AE0
:1004000005E1002A0DE001320232033261C06CF0D6
:1004100065516C1B6CAF02D0018E06D0019E04D0DA
:10042000006A016A026A036AC0EF03F05DC064F00B
:100430006151641B64AF05D0D894D8905DBED8805C
:100440002FD05DC064F060C065F05C50655F06E071
:1004500064AF26D0D850010AD86E22D061C065F0B2
:100460005D50655F06E064AF1BD0D850010AD86EBE
:1004700017D062C065F05E50655F06E064AF10D0D3
:10048000D850010AD86E0CD063C065F05F50655F2C
:1004900006E064AF05D0D850010AD86E01D0D890DC
:1004A000D6EF03F0800ED8B2691B6E6B6F6B65C020
:1004B0006DF069516D1B6451D8B4DCD06C6F006E67
:1004C0006851D8B4E0D06C5FD8B481D03DE369C046
:1004D00072F0728F6AC071F06BC070F06F6BD89061
:1004E0007233713370336F336C2FF8D76DAF03D025
:1004F0006E81DDD06E916C916E89EA6A670EE96E4D
:10050000E9D06E996DBF0AD06CA113D072337133EC
:1005100070336F33002AD8B4C5D00BD072BF0CD063
:10052000D8906F377037713772370006D8B4BAD0A9
:10053000F5D76E8D6BD06E9D65C06DF065AF02D046
:10054000728FA9D0729FA7D068C06CF068C000F00D
:1005500064516C5F65C072F0728F66C071F067C0E5
:1005600070F06F6BD8907233713370336F336C2FC0
:10057000F8D76DAF03D06E839AD06E936C916E8B6B
:10058000EA6A6B0EE96EA6D06E9B6DBF0AD06CA1B5
:1005900013D07233713370336F33002AD8B482D0E2
:1005A0000BD072BF0CD0D8906F377037713772375D
:1005B0000006D8B477D0F5D76E8F28D06E9F69C06B
:1005C0006DF069AF02D0728F66D0729F64D069C03F
:1005D00072F0728F6AC071F06BC070F06DAF04D0B2
:1005E000729F6E8564D06E956F6B6C91EA6A670E30
:1005F000E96E70D06DBF1CD065C06DF06CA106D0E7
:100600007233713370336F33002A4CE06FAF0BD00D
:10061000702B09E1712B07E1722B05E17233713305
:100620007033002A3FE06EBD86D76EBFC7D71CD09F
:10063000800E721B72AF04D03AD069C06DF00AD040
:1006400065C06DF0725306E1715304E1705302E12D
:10065000006A21D072BF08D0D8906F3770377137D9
:100660007237002EF7D71ED06DAF02D0728F13D025
:10067000729F11D068C000F069C072F06AC071F05A
:100680006BC070F008D064C000F065C072F066C046
:1006900071F067C070F072C001F071C002F070C0FC
:1006A00003F034D0006A016A026A036A2FD06F6BCC
:1006B000701F711F721F6F1F6F2B05E1702B03E1FD
:1006C000712B01E1722B6EB115D76EB356D76EB593
:1006D0008AD7B3D7EF50702705E3712B03E1722B54
:1006E000D8B46C81ED52EF50712703E3722BD8B46C
:1006F0006C81ED52EF50EFBE01D0800A7227D8B066
:100700006C816EB9FED66EBB3FD774D71200D76A24
:10071000060ED66E1D2A1D500308D8B0E1D01D6A02
:10072000616B1CC060F040DD03C06BF002C06AF07A
:1007300001C069F000C068F06F6B6E6B700E6D6F7A
:10074000860E6C6F4CDD03C05FF002C05EF001C02E
:100750005DF000C05CF0616B1EC060F025DD5FC025
:1007600063F05EC062F05DC061F05CC060F003C029
:1007700067F002C066F001C065F000C064F0A8D563
:1007800003C024F002C023F001C022F000C021F019
:100790001C6A28C05FF027C05EF026C05DF025C04F
:1007A0005CF0636B626B616B606B40D6D8B484D0D5
:1007B000D89234C067F033C066F032C065F031C003
:1007C00064F06B6B6A6B696B7F0E686F6BDE03C0E6
:1007D0005FF002C05EF001C05DF000C05CF030C0B0
:1007E0006BF02FC06AF02EC069F02DC068F024C0F5
:1007F0006FF023C06EF022C06DF021C06CF0EFDC12
:1008000003C063F002C062F001C061F000C060F09C
:10081000D882676B666B656B7F0E646F30C06BF060
:100820002FC06AF02EC069F02DC068F03BDE03C017
:1008300067F002C066F001C065F000C064F003C05C
:100840006BF002C06AF001C069F000C068F028C017
:100850006FF027C06EF026C06DF025C06CF0BFDCD5
:10086000D89263C067F062C066F061C065F060C096
:1008700064F003C06BF002C06AF001C069F000C010
:1008800068F010DE5FC06BF05EC06AF05DC069F0BA
:100890005CC068F003C06FF002C06EF001C06DF084
:1008A00000C06CF09CDC03C02CF002C02BF001C037
:1008B0002AF000C029F008D024C02CF023C02BF06F
:1008C00022C02AF021C029F02CC028F02BC027F02C
:1008D0002AC026F029C025F0202C02D0010E416E3E
:1008E000F2943CEF00F09EAAFED7AECF5CF05C3CE9
:1008F00001D03F6A036A3F50350FE96E000E0320B6
:10090000EA6E5CC0EFFF3F2A3F50020803E2010E8F
:10091000406E3F6A9E9A3CEF00F0252E3266202DF5
:100920000A004250E96E43C0EAFFEF3C10D0010ECE
:100930004224E96E000E4320EA6EEFCF1FF0020E54
:100940004224E96E000E4320EA6EEFCF20F065EFFF
:1009500006F04F50B6084F6E036A50C053F0508EE9
:10096000D8905032513252320332023201320032C8
:100970004F2EF6D753AE0BD0001E011E021E031ED3
:10098000002AD8B4012AD8B4022AD8B4032A3EEFE8
:1009900005F0D8B203D0EA6A570EE96E006A016A20
:1009A000026A036A576A586A596A5A6A5650551059
:1009B000541053102CE0200E5B6ED8904F365036FA
:1009C000513652365736583659365A3656505A5C82
:1009D00008E15550595C05E15450585C02E1535010
:1009E000575C0FE35350575E5450D8A0543C585EA8
:1009F0005550D8A0553C595E5650D8A0563C5A5E2A
:100A0000D88000360136023603365B2ED6D757C063
:100A1000EFFF58C0ECFF59C0ECFF5AC0ECFF1200CA
:100A2000E950476E4650496E20E0196AF2BE198EB1
:100A3000F29E45C06BF044C06AF043C069F042C00A
:100A400068F06F6B6E6B200E6D6F820E6C6FEFEC4B
:100A500000F019BEF28E03C045F002C044F001C0A0
:100A600043F000C042F0492EE0D745C052F044C0E8
:100A700051F043C050F042C04FF06BD703C045F077
:100A800002C044F001C043F000C042F045AE0DD0BA
:100A90004706478A421E431E441E451E422AD8B4BA
:100AA000432AD8B4442AD8B4452A3B0E4E6E9A0E37
:100AB0004D6ECA0E4C6E4B6A0A0E496E4650D8B443
:100AC000472AD882EA6A420EE96E45C052F044C015
:100AD00051F043C050F042C04FF04EC056F04DC0F0
:100AE00055F04CC054F04BC053F053DF015000524E
:100AF0000FE14628495C0CE047500CE00F0B495CC5
:100B000001E03BE247BE39D047BC04D0200E30D0D4
:100B1000200E471647AA0DD0479A4650D8A447063C
:100B20000050476E2D0E9EA8FED7AD6E4750006E4A
:100B3000476A4650495C0BE10050476E2E0E9EA856
:100B4000FED7AD6E4750006E200E4716000E300ED9
:100B500047AA0ED0479A4650D8A447060050476E81
:100B60002D0E9EA8FED7AD6E4750006E476A300E20
:100B7000002600509EA8FED7AD6ED8924EC052F00F
:100B80004DC051F04CC050F04BC04FF0566A556A02
:100B9000546A0A0E536EFDDE03C04EF002C04DF0E3
:100BA00001C04CF000C04BF0492E8BD795EF06F0FA
:100BB0000900F6CF43F0F7CF44F0F5509EA8FED7DA
:100BC000AD6E43C0F6FF44C0F7FF422EF1D79CEF55
:100BD00006F0F86AD09E078E500ED36ED26A9B6ADA
:100BE000B896190EAF6EA60EAC6E900EAB6E580E88
:100BF0001A6E010E1B6E1C6A1D6A080E1E6E1F6A9D
:100C0000206A246A236A226A216A286A276A266A75
:100C1000256A2C6A2B6A2A6A296ACD0E306ECC0EA0
:100C20002F6E4C0E2E6E7E0E2D6E346A336A326A33
:100C3000316A3F6A406A416A0F015B6B5C6B5D6BB6
:100C40005E6B5F6B9A6A996A986A9D8AF288F28AEB
:100C5000C00EF212010E1B5C016E0134006E0036F4
:100C60000036F80E001600500609BA6E1AC0BBFF17
:100C700094948B940C0EBD6EB76AB66A010EB96E71
:100C80005991C70ED56ED8901F34036A000163ECEA
:100C900000F00900F5CF03F0426E03C043F0433289
:100CA000423243324232433242C0BEFF43324330CB
:100CB000300B006EBD50CF0B0010BD6E405223E0D4
:100CC000406A436A350E426E2CD620521BE0D89003
:100CD0001F34036A63EC00F00900F5CF03F0426EA5
:100CE00003C043F04332423243324232433242C0C5
:100CF000BEFF43324330300B006EBD50CF0B0010AF
:100D0000BD6E01D0BE6A415217E0416A205214E024
:100D1000890EE96E2CC045F02BC044F02AC043F088
:100D200029C042F0020E466E7BD61E0EF66E090EEC
:0C0D3000F76E030E426E3CD7C1D70300E3
:020000040030CA
:0E00000021C15E3C00D3A1000FC00FE00F40F5
:00000001FF
;PIC18F45K50
;CRC=3FA4  CREATED="30-Mar-24 20:15"
