:04000000EBEF05F02D
:08000800046ED8CF05F0E0CF33
:1000100006F00001E9CF0CF0EACF07F0E1CF08F0DD
:10002000E2CF09F0D9CF0AF0DACF0BF0F3CF12F01C
:10003000F4CF13F0FACF14F0F5CF15F0F6CF16F099
:10004000F7CF17F000C00EF001C00FF002C010F0A3
:1000500003C011F0F2AA30EF00F0F2B4AFEF04F0F9
:10006000F2A836EF00F0F2B2D0EF00F09DAA3CEF1C
:1000700000F09EBAB9EF05F00EC000F00FC001F01D
:1000800010C002F011C003F00CC0E9FF07C0EAFF86
:10009000078E08C0E1FF09C0E2FF0AC0D9FF0BC00C
:1000A000DAFF12C0F3FF13C0F4FF14C0FAFF15C04B
:1000B000F5FF16C0F6FF17C0F7FF045006C0E0FFBB
:1000C00005C0D8FF1000F76AD60FF66E000EF722B3
:1000D0000900F55012000000030007000A000E009E
:1000E0001100150018001C002000230027002A0022
:1000F0002E003100350038003C004000430047002E
:100100004A004E005100550059005C006000630039
:1001100067006A006E007100750079007C00800045
:10012000830087008A008E009100950099009C0052
:10013000A000A300A700AA00AE00B200B500B9005D
:10014000BC00C000C300C700CA00CE00D200D5006A
:10015000D900DC00E000E300E700EA00EE00F20076
:10016000F500F900FC000001030107010B010E017D
:100170001201150119011C012001230127012B0186
:100180002E013201350139013C0140014301470193
:100190004B014E015201550159015C01600164019E
:1001A0001B2AF2923CEF00F08E0E006E70C001F040
:1001B0006FC002F0036A015209E102C001F0026A55
:1001C000080E005E015202E1006A08D0D89001BE1C
:1001D00004D0023601360006F9D7019E120078518C
:1001E000D8B471D0006E7C51D8B46DD0002604E331
:1001F000810E002668E204D07F0E005E64E363E0B7
:1002000079C080F07D51801B798F7D8F7B517F037A
:10021000F4CF82F07A517E03F4CF03F0F3CF81F074
:100220007F03F3508227F4508123000E03227B5179
:100230007E03F3508227F4508123000E026A0322CA
:10024000022279517F03F3508127F4500322000EDC
:10025000022279517E03F3500326F4500222000E4D
:10026000016A01227B517D03F3508127F450032260
:10027000000E022201227A517D03F3500326F4502E
:100280000222000E012279517D03F3500226F45020
:100290000122002A01BE05D081370336023601361D
:1002A0000006000E81AF0AD0032A0222012201506B
:1002B00005E1025003E1035001E1002A80BF018EF5
:1002C00080AF019E04D0006A016A026A036A1200CC
:1002D0006F51D8B4A5D07B6F7351D8B4A1D07B5FD8
:1002E00005E37F0E7B27D8B09BD006D0810E7B5FC5
:1002F000D8A096D0D8B494D07BC000F0016A026A2E
:10030000036A7A6B70C079F0798F71C078F072C02F
:1003100077F0190E7B6F7651775F0DE2010E785FF3
:100320000AE2795F08E27A5F06E27A2B792B782B72
:100330007651772728D07551785F12E2010E795FE8
:100340000FE27A5F0DE27A2B792B7551782776517F
:10035000772719E3782B17E1792B15E17A2B13D046
:1003600074518009795F0EE2010E7A5F0BE27A2BFD
:1003700074518009792775517827E9E3792BE7E1F2
:100380007A2BE5D703807B2F01D00BD0D89077371D
:10039000783779377A37D8900336023601367C378A
:1003A000BAD77CA106D0D8900132023203327C3316
:1003B00002D0000635E07CBF1ED0D8907737783762
:1003C00079377A377651775F07E2010E785F04E27A
:1003D000795F02E27A5F1AE37551785F05E2010EF8
:1003E000795F02E27A5F12E374518009795F03E278
:1003F000010E7A5F0BE3032A09E1022A07E1012AD1
:1004000005E1002A0DE001320232033270C07BF0B8
:1004100074517B1B7BAF02D0018E06D0019E04D0AD
:10042000006A016A026A036AF2EF04F06CC073F0BA
:100430007051731B73AF05D0D894D8906CBFD8801F
:100440002FD06CC073F06FC074F06B51745F06E016
:1004500073AF26D0D850010AD86E22D070C074F085
:100460006C51745F06E073AF1BD0D850010AD86E90
:1004700017D071C074F06D51745F06E073AF10D087
:10048000D850010AD86E0CD072C074F06E51745FEF
:1004900006E073AF05D0D850010AD86E01D0D890CD
:1004A00008EF05F0800ED8B2781B7D6B7E6B74C0B0
:1004B0007CF078517C1B7351D8B4DCD07B6F006E1C
:1004C0007751D8B4E0D07B5FD8B481D03DE378C019
:1004D00081F0818F79C080F07AC07FF07E6BD890F8
:1004E000813380337F337E337B2FF8D77CAF03D0CB
:1004F0007D81DDD07D917B917D89EA6A760EE96E02
:10050000E9D07D997CBF0AD07BA113D081338033A1
:100510007F337E33002AD8B4C5D00BD081BF0CD036
:10052000D8907E377F37803781370006D8B4BAD06D
:10053000F5D77D8D6BD07D9D74C07CF074AF02D0FB
:10054000818FA9D0819FA7D077C07BF077C000F0C2
:1005500073517B5F74C081F0818F75C080F076C06D
:100560007FF07E6BD890813380337F337E337B2F57
:10057000F8D77CAF03D07D839AD07D937B917D8B20
:10058000EA6A7A0EE96EA6D07D9B7CBF0AD07BA179
:1005900013D0813380337F337E33002AD8B482D0A6
:1005A0000BD081BF0CD0D8907E377F378037813712
:1005B0000006D8B477D0F5D77D8F28D07D9F78C03E
:1005C0007CF078AF02D0818F66D0819F64D078C0F4
:1005D00081F0818F79C080F07AC07FF07CAF04D049
:1005E000819F7D8564D07D957E6B7B91EA6A760ED6
:1005F000E96E70D07CBF1CD074C07CF07BA106D0AB
:10060000813380337F337E33002A4CE07EAF0BD0C2
:100610007F2B09E1802B07E1812B05E181338033BA
:100620007F33002A3FE07DBD86D77DBFC7D71CD072
:10063000800E811B81AF04D03AD078C07CF00AD004
:1006400074C07CF0815306E1805304E17F5302E1E2
:10065000006A21D081BF08D0D8907E377F3780379D
:100660008137002EF7D71ED07CAF02D0818F13D0F8
:10067000819F11D077C000F078C081F079C080F000
:100680007AC07FF008D073C000F074C081F075C0EC
:1006900080F076C07FF081C001F080C002F07FC0A2
:1006A00003F034D0006A016A026A036A2FD07E6BBD
:1006B0007F1F801F811F7E1F7E2B05E17F2B03E1A3
:1006C000802B01E1812B7DB115D77DB356D77DB548
:1006D0008AD7B3D7EF507F2705E3802B03E1812B27
:1006E000D8B47B81ED52EF50802703E3812BD8B43F
:1006F0007B81ED52EF50EFBE01D0800A8127D8B048
:100700007B817DB9FED67DBB3FD774D7120078516F
:10071000B608786F036A79C07CF0798FD890793306
:100720007A337B330332023201320032782FF6D72C
:100730007CAF0BD0001E011E021E031E002AD8B47F
:10074000012AD8B4022AD8B4032A15EF04F0D8B28B
:1007500003D0EA6A800EE96E006A016A026A036ADF
:10076000806B816B826B836B7F517E117D117C115D
:100770002CE0200E846FD890783779377A377B3722
:1007800080378137823783377F51835D08E17E511F
:10079000825D05E17D51815D02E17C51805D0FE369
:1007A0007C51805F7D51D8A07D3D815F7E51D8A076
:1007B0007E3D825F7F51D8A07F3D835FD880003629
:1007C000013602360336842FD6D780C0EFFF81C0B2
:1007D000ECFF82C0ECFF83C0ECFF1200E950706FA9
:1007E0006F51726F19E06EC07BF06DC07AF06CC013
:1007F00079F06BC078F07F6B7E6B200E7D6F820E80
:100800007C6FEDDC03C06EF002C06DF001C06CF0D7
:1008100000C06BF0722FE7D76EC07BF06DC07AF02E
:100820006CC079F06BC078F072D703C06EF002C074
:100830006DF001C06CF000C06BF06EAF0DD07007B2
:10084000708B6B1F6C1F6D1F6E1F6B2BD8B46C2BC6
:10085000D8B46D2BD8B46E2B3B0E776F9A0E766F93
:10086000CA0E756F746B0A0E726F6F51D8B4702B0D
:10087000D882EA6A6B0EE96E6EC07BF06DC07AF0CA
:100880006CC079F06BC078F077C07FF076C07EF0F6
:1008900075C07DF074C07CF05ADF015000520FE14A
:1008A0006F29725D0CE070510CE00F0B725D01E07E
:1008B0003BE270BF39D070BD04D0200E30D0200E86
:1008C000701770AB0DD0709B6F51D8A4700700509B
:1008D000706F2D0E9EA8FED7AD6E7051006E706BBE
:1008E0006F51725D0BE10050706F2E0E9EA8FED707
:1008F000AD6E7051006E200E7017000E300E70AB92
:100900000ED0709B6F51D8A470070050706F2D0EE1
:100910009EA8FED7AD6E7051006E706B300E002633
:1009200000509EA8FED7AD6ED89277C07BF076C0FF
:100930007AF075C079F074C078F07F6B7E6B7D6B58
:100940000A0E7C6F04DF03C077F002C076F001C0AE
:1009500075F000C074F0722F8BD7AEEF05F0D76A38
:10096000060ED66E00001C2A1C500308D8B0FED01C
:100970001C6A706B1BC06FF017DC03C06EF002C006
:100980006DF001C06CF000C06BF003C07BF002C0E2
:100990007AF001C079F000C078F07F6B7E6B700E4A
:1009A0007D6F860E7C6F1BDC03C06EF002C06DF0A5
:1009B00001C06CF000C06BF0706B1DC06FF0D4EC28
:1009C00000F06EC072F06DC071F06CC070F06BC062
:1009D0006FF003C076F002C075F001C074F000C083
:1009E00073F076D403C023F002C022F001C021F0DE
:1009F00000C020F01B6A27C06EF026C06DF025C035
:100A00006CF024C06BF0726B716B706B6F6B0ED5FA
:100A1000D8B487D0D89233C076F032C075F031C0E8
:100A200074F030C073F07A6B796B786B7F0E776FF0
:100A300039DD03C06EF002C06DF001C06CF000C083
:100A40006BF02FC07BF02EC07AF02DC079F02CC057
:100A500078F023C07FF022C07EF021C07DF020C05E
:100A60007CF0EFEC00F003C072F002C071F001C046
:100A700070F000C06FF0D882766B756B746B7F0E70
:100A8000736F2FC07AF02EC079F02DC078F02CC093
:100A900077F008DD03C076F002C075F001C074F095
:100AA00000C073F003C07BF002C07AF001C079F09F
:100AB00000C078F027C07FF026C07EF025C07DF012
:100AC00024C07CF0EFEC00F0D89272C076F071C0D8
:100AD00075F070C074F06FC073F003C07AF002C09C
:100AE00079F001C078F000C077F0DCDC6EC07BF0FC
:100AF0006DC07AF06CC079F06BC078F003C07FF005
:100B000002C07EF001C07DF000C07CF0EFEC00F090
:100B100003C02BF002C02AF001C029F000C028F069
:100B200008D023C02BF022C02AF021C029F020C019
:100B300028F02BC027F02AC026F029C025F028C0B5
:100B400024F0890EE96E2BC06EF02AC06DF029C02A
:100B50006CF028C06BF0020E6F6F40D6200E9EA87E
:100B6000FED7AD6E2D0E9EA8FED7AD6EF2943CEF73
:100B700000F09EAAFED7AECF6BF06B3D01D0666B46
:100B8000036A6651340FE96E000E0320EA6E6BC0F3
:100B9000EFFF662B6651020803E2010E676F666B7A
:100BA0009E9A3CEF00F06851E96E69C0EAFFEF3CA5
:100BB00010D0010E6825E96E000E6921EA6EEFCFB4
:100BC0001EF0020E6825E96E000E6921EA6EEFCF75
:100BD0001FF067EF06F0F86AD09E078E500ED36EB6
:100BE000D26A9B6AB896190EAF6EA60EAC6E900EC6
:100BF000AB6E580E196E010E1A6E1B6A1C6A080E37
:100C00001D6E320E1E6E1F6A236A226A216A206AD6
:100C1000276A266A256A246A2B6A2A6A296A286A48
:100C2000CD0E2F6ECC0E2E6E4C0E2D6E7E0E2C6EBB
:100C3000336A326A316A306A666B676B0F015B6BCD
:100C40005C6B5D6B5E6B5F6B9A6A996A986A9D8A52
:100C5000F288F28AC00EF212010E1A5C016E0134A3
:100C6000006E00360036F80E001600500609BA6E07
:100C700019C0BBFF94948B940C0EBD6EB76AB66A14
:100C8000010EB96E5991C70ED56ED8901E34036A05
:100C9000000163EC00F00900F5CF03F0686F03C0BA
:100CA00069F06933683369336833693368C0BEFFFC
:100CB00069336931300B006EBD50CF0B0010BD6E33
:100CC000675323E0676B696B340E686F6CD71F52F4
:100CD0001BE0D8901E34036A63EC00F00900F5CFE6
:100CE00003F0686F03C069F06933683369336833B0
:100CF000693368C0BEFF69336931300B006EBD5087
:0E0D0000CF0B0010BD6E01D0BE6ADAD7030023
:020000040030CA
:0E00000021C15E3C00D3A1000FC00FE00F40F5
:00000001FF
;PIC18F45K50
;CRC=F63E  CREATED="03-mar.-25 10:14"
