:1000000000308A007A280000D0346E10C83467347B
:100010000000D0346E10CC3777000B08A3008B1390
:10002000831603178C170C140000000083120313AF
:10003000A31B8B1703170C087F39031963280313BD
:10004000A30003170D080313A40003170F080313DD
:10005000A50023080C1E2A289900240803178D00E8
:100060000313250803178F0003130B08A6008B1337
:10007000831603178C170C1400000000831203135F
:10008000A61B8B1703170C0D0E0D7F390319632860
:100090000313A30003170D080313A40003170F088D
:1000A0000313A50023080C1E5328990024080317E6
:1000B0008D000313250803178F008D0A03198F0A7B
:1000C00003130D280317031308002430840083133F
:1000D0000008031979280130F800F701F70B6E28A2
:1000E000F80B6D284A30F700F70B74287728800B3F
:1000F0006B28080003081F39830019308316990004
:10010000A6309800903083129800FF30A000A20122
:10011000A10183161F149F141F159F1183138312AF
:100120002011200883168700831207150430031757
:100130008D0000308F0003130D200830A300FA302B
:10014000A4006520A30B9F28201120088316870098
:1001500083120711093003178D0000308F0003133D
:100160000D200830A300FA30A4006520A30BB328AB
:040170009028630070
:02400E00713F00
:00000001FF
;PIC16F877
;CRC=B4B4  CREATED="11-mar.-25 22:05"
