:1000000001308A0062290000FF00030E8301A10075
:100010000A08A0008A010408A2007708A300780853
:10002000A4007908A5007A08A60003170D08031399
:10003000A70003170F080313A80003170C080313E6
:10004000A90003170E080313AA00831383128C3030
:100050008400801E2D288C1A4E2822088400230834
:10006000F7002408F8002508F9002608FA002708F8
:1000700003178D000313280803178F0003132908A3
:1000800003178C0003132A0803178E00031320089C
:100090008A00210E8300FF0E7F0E09008A110A12CA
:1000A00051288C1E51281A0803179C001C0F5B282E
:1000B0000313AC0103172D3003132C0784008313A3
:1000C00003171C0880000313AC0A2C08023C031819
:1000D0006C280130AB00AC012D0F74282F0B742855
:1000E0000130B000B1007528B0018C128A110A12DB
:1000F0002D28B119B91AA0160A0003179B0104088C
:100100009A001B10831B1B14941F8E289A171A1E0B
:100110009A0A93099409930A0319940A140EF03861
:1001200096009607E23E9700323E990014080F3978
:10013000970797079907E93E980098079807130EC5
:100140000F3998079907980D990D9909990D13087A
:100150000F399907960D073095000A3099079803D3
:10016000031CAE2898079703031CB2289707960331
:10017000031CB62896079503031CBA281530840083
:10018000831707301A051A1384031A05031DCF2895
:100190001A1A840A1A1ACF282030F700EC2884078C
:1001A0001930040203191A170008F700031DE0288C
:1001B0001A1BE0281A1AF2289A19E0282030EB2896
:1001C0009A1FE8282D30F70084031A139A13EC289D
:1001D0009A151A123030F707770803130C1EEE2811
:1001E00099000317840A1A1FD02803138A110A12D0
:1001F000342A123084008317000803190D290130B6
:10020000F800F701F70B0229F80B01294A30F70033
:10021000F70B08290B29800BFF2808000B08031790
:10022000910003138B13831603178C170C14000013
:1002300000008312911F1F2903138B1703170C084B
:100240007F3903195E2991000D0892000F08930071
:10025000110803130C1E2A299900031712088D0098
:1002600013088F0003130B080317940003138B1359
:10027000831603178C170C14000000008312941FC0
:10028000442903138B1703170C0D0E0D7F39031927
:100290005E2991000D0892000F08930011080313C6
:1002A0000C1E50299900031712088D0013088F00A7
:1002B0008D0A03198F0A03130E29031703138A11DA
:1002C0000A12552A03081F39830019308316990032
:1002D000A6309800903083129800AB01AC01B001B9
:1002E000B101B301B20183161F149F141F159F1192
:1002F00007309C008313A001A1012330A200A301B9
:100300004630A400A5016930A600A7018C30A800E2
:10031000A901AF30AA00AB01D230AC00AD01F5307D
:10032000AE00AF011830B0000130B1003B30B20078
:100330000130B3005E30B4000130B5008130B6004A
:100340000130B700A430B8000130B900C730BA009E
:100350000130BB00EA30BC000130BD000D30BE00F2
:100360000230BF003030C0000230C1005330C20044
:100370000230C3007630C4000230C5009930C60098
:100380000230C700BC30C8000230C900DF30CA00EC
:100390000230CB00CC000330CD002530CE0003303E
:1003A000CF004830D0000330D1006B30D200033092
:1003B000D3008E30D4000330D500B130D6000330E6
:1003C000D700D430D8000330D900F730DA0003303A
:1003D000DB001A30DC000430DD003D30DE0004308C
:1003E000DF006030E0000430E1008330E2000430E0
:1003F000E300A630E4000430E500C930E600043034
:10040000E700EC30E8000430E9000F30EA00053086
:10041000EB003230EC000530ED005530EE000530D9
:10042000EF008C16C03083128B04B0080319602AC9
:10043000B10803194E2A031790011008273C031C2A
:100440004C2A0310100DA03E84008313840A000878
:100450009200840300089100103084001208940078
:100460001108930003137D2820300C1E352A9900B3
:100470002D300C1E392A99000A300C1E3D2A990095
:10048000023003179100803092000313F920031704
:10049000910B432A900A1D2A0313B10179300317E7
:1004A0008D0000308F0003130E29023003179100D6
:1004B000803092000313F9200317910B582A03137D
:1004C000AB0803196C2AAB012D0F6C2AAE08031D73
:0C04D0006C2AAF0803196D2A152A63007E
:02400E00733FFE
:00000001FF
;PIC16F877A
;CRC=23FA  CREATED="10-mar.-25 19:14"
