:1000000001308A0062290000FF00030E8301A10075
:100010000A08A0008A010408A2007708A300780853
:10002000A4007908A5007A08A60003170D08031399
:10003000A70003170F080313A80003170C080313E6
:10004000A90003170E080313AA00831383128C3030
:100050008400801E2D288C1A4E2822088400230834
:10006000F7002408F8002508F9002608FA002708F8
:1000700003178D000313280803178F0003132908A3
:1000800003178C0003132A0803178E00031320089C
:100090008A00210E8300FF0E7F0E09008A110A12CA
:1000A00051288C1E51281A0803179C001C0F5B282E
:1000B0000313AC0103172D3003132C0784008313A3
:1000C00003171C0880000313AC0A2C08023C031819
:1000D0006C280130AB00AC012D0F74282F0B742855
:1000E0000130B000B1007528B0018C128A110A12DB
:1000F0002D28B119B91AA0160A0003179B0104088C
:100100009A001B10831B1B14941F8E289A171A1E0B
:100110009A0A93099409930A0319940A140EF03861
:1001200096009607E23E9700323E990014080F3978
:10013000970797079907E93E980098079807130EC5
:100140000F3998079907980D990D9909990D13087A
:100150000F399907960D073095000A3099079803D3
:10016000031CAE2898079703031CB2289707960331
:10017000031CB62896079503031CBA281530840083
:10018000831707301A051A1384031A05031DCF2895
:100190001A1A840A1A1ACF282030F700EC2884078C
:1001A0001930040203191A170008F700031DE0288C
:1001B0001A1BE0281A1AF2289A19E0282030EB2896
:1001C0009A1FE8282D30F70084031A139A13EC289D
:1001D0009A151A123030F707770803130C1EEE2811
:1001E00099000317840A1A1FD02803138A110A12D0
:1001F0003A2A123084008317000803190D290130B0
:10020000F800F701F70B0229F80B01294A30F70033
:10021000F70B08290B29800BFF2808000B08031790
:10022000910003138B13831603178C170C14000013
:1002300000008312911F1F2903138B1703170C084B
:100240007F3903195E2991000D0892000F08930071
:10025000110803130C1E2A299900031712088D0098
:1002600013088F0003130B080317940003138B1359
:10027000831603178C170C14000000008312941FC0
:10028000442903138B1703170C0D0E0D7F39031927
:100290005E2991000D0892000F08930011080313C6
:1002A0000C1E50299900031712088D0013088F00A7
:1002B0008D0A03198F0A03130E29031703138A11DA
:1002C0000A125B2A03081F3983001930831699002C
:1002D000A6309800903083129800AB01AC01B001B9
:1002E000B101B301B20183161F149F141F159F1192
:1002F00007309C008313A001A1018830A200A30154
:100300000330A4000130A5007230A6000130A70020
:10031000D630A8000130A9003030AA000230AB006E
:100320008230AC000230AD00CC30AE000230AF0005
:100330000E30B0000330B1004A30B2000330B300D9
:100340008130B4000330B500B230B6000330B700DE
:10035000DE30B8000330B9000630BA000430BB000C
:100360002A30BC000430BD004A30BE000430BF005B
:100370006730C0000430C1008230C2000430C300C6
:100380009A30C4000430C500AF30C6000430C70046
:10039000C330C8000430C900D430CA000430CB00D8
:1003A000E430CC000430CD00F330CE000430CF0078
:1003B000D0010530D1000B30D2000530D30016300B
:1003C000D4000530D5001F30D6000530D7002830C6
:1003D000D8000530D9003030DA000530DB00373086
:1003E000DC000530DD003D30DE000530DF0043304D
:1003F000E0000530E1004830E2000530E3004C3019
:10040000E4000530E5005130E6000530E7005430E7
:10041000E8000530E9005830EA000530EB005B30B9
:10042000EC000530ED005E30EE000530EF008C167C
:10043000C03083128B04B0080319662AB10803196F
:10044000542A031790011008273C031C522A03105A
:10045000100DA03E84008313840A000892008403D8
:1004600000089100103084001208940011089300D5
:1004700003137D2820300C1E3B2A99002D300C1EC2
:100480003F2A99000A300C1E432A990002300317B4
:100490009100803092000313F9200317910B492A31
:1004A000900A232A0313B101793003178D0000301D
:1004B0008F0003130E290230031791008030920041
:1004C0000313F9200317910B5E2A0313AB080319DA
:1004D000722AAB012D0F722AAE08031D722AAF08D3
:0804E0000319732A1B2A6300B3
:02400E00733FFE
:00000001FF
;PIC16F877A
;CRC=9DCE  CREATED="10-mar.-25 14:02"
